:02000002D0002C
:1040000000400D00788A0D00000005000C0005013D
:0840100004014601000000005C
:1040180020830D0009480A49884208B505D0094A95
:10402800824202D0121A04F06FF80748074A0021AA
:10403800121A04F074F8014808BD00BFF0E103202B
:10404800D8890D0068E2032068E20320F0E7032026
:1040580070B502F09DFF074C074BE41AA408002531
:104068001E46A54204D056F8253098470135F8E792
:1040780070BD00BFD0890D0088890D0000F0C2BC5A
:1040880008B500F029FDBDE8084002F04FBF01F077
:10409800F7B901F0FDB901F0FBB90078B0FA80F08A
:1040A80040097047012303707047000008B5036892
:1040B800DB6A9847004808BDD2FEFFFF13B5064BE0
:1040C800064A1B788DF800303C23044601F06CFB4F
:1040D800204602B010BD00BF6CE203206EE2032050
:1040E80030B5DFED227AB0EEC07AB4EE677AF1EE41
:1040F80010FA8BB005460C460DDCDFED1D7AB4EEE8
:10410800E70AF1EE10FA2BDCDFED1A7AB4EEE70AD3
:10411800F1EE10FA24D410EE100A03F097FA0246D2
:104128000B4605A8144901F0C3F905A901A802F036
:10413800DEF9601E07280AD8039BFF2B0AD805EB77
:10414800001001A9083002F002FAC82404E06FF058
:10415800C80401E06FF0640401A802F081F901E0ED
:104168006FF0640420460BB030BD00BFFFFF7F7FB7
:1041780096D4685396D468D334830D002DE9F04162
:10418800154686B020233149ADF80030064602F0C6
:10419800AEF9AC68DFF8BC8001340027AB689F42F9
:1041A80015D23946284602F06BFAA0F12003DBB29B
:1041B8005F2B01D9013C08E02238C0B2192804D885
:1041C80028FA00F0C20748BF02340137E6E7204664
:1041D80001F056F90746A8B30024DFF87880047088
:1041E800AB689C4220D22146284602F049FAA0F149
:1041F8002003DBB25F2B024614D8A0F12203DBB206
:10420800192B09D828FA03F3DB0705D5104901A8AB
:1042180001F04EF901A902E08DF800206946384600
:1042280003F0AEFF0134DBE7394602A802F05FF97C
:1042380002A9304602F0A5F902A802F011F93846A1
:1042480001F026F9304606B0BDE8F0810C840D0077
:1042580039830D0019020002F0B585B005460E46F7
:1042680000F012FF41F287370446286803681B698B
:10427800984740B900F008FF001BB84203D86420F3
:1042880001F03EF9F1E7286803681B69984730B3E5
:104298001449286802F036F810B96FF497701FE0D7
:1042A800286802F062F8C828044616D10E49286822
:1042B80002F028F80028F0D00C49286802F022F80B
:1042C8000028EAD02968684602F052F86946304664
:1042D80002F03DF9684602F0C3F8204600E00448C1
:1042E80005B0F0BD40830D000A840D0009840D005F
:1042F800D0FEFFFFF0B5044600684C491E4603682F
:1043080089B015465F6AA2880023B847002846D0BE
:10431800294604A802F02AF94549684602F0E7F858
:10432800694604A802F097F90146284602F00FF9F9
:10433800684602F095F804A802F092F83D49206812
:1043480001F002FE002837D03B49206801F0FCFD4F
:10435800002831D03949206801F0F6FD60B33849AA
:10436800206801F0F1FD38B33649206801F0ECFD12
:1043780010B33549206801F0E7FDE8B196B133493B
:10438800206801F0E1FDB8B13146206801F0DCFD9C
:1043980090B12D49206801F0D7FD18B90CE06FF4F1
:1043A800967040E02A49206801F0CEFD20B12949E5
:1043B800206801F0C9FD18B92068FFF777FE32E0E0
:1043C8000A22A968206801F015FE0028F4D02249C5
:1043D800206801F0B9FD0028EED02968206801F0B6
:1043E800B3FD0028E8D01D4904A802F080F804A90C
:1043F8002046FFF731FFC828054604D02068036827
:10440800DB6A98470BE004A802F03CF906462068EE
:104418000368DB6A9847002E08BF6FF4C87504A8C4
:1044280002F01EF8284609B0F0BD00BF49830D0010
:104438005C830D006B830D0083830D009E830D004C
:10444800B2830D00BF830D000A840D00E2830D00C6
:104458000D840D00F7830D0008840D000C840D00F9
:104468002DE9F0439DB004460F466846BF49012533
:10447800904604F1080602F03AF82B46B268002A82
:104488005ED0ABB9694618A802F070F8B84914A80C
:1044980002F02DF814A918A802F0DDF801466846C4
:1044A80002F055F814A801F0DBFF18A801F0D8FFB6
:1044B800694608A802F05AF8AE4904A802F017F8AD
:1044C80004A908A802F0C7F80A22814629460CA8C0
:1044D80002F070F80CA9484602F0BDF8A6498146DA
:1044E80010A802F004F810A9484602F0B4F83146C2
:1044F800814614A802F03AF814AA214618A8FFF732
:104508003DFE18A9484602F0A6F80146684602F0A2
:104518001EF818A801F0A4FF14A801F0A1FF10A824
:1045280001F09EFF0CA801F09BFF04A801F098FF82
:1045380008A801F095FF8D49304602F02AF80023BB
:104548000135092D06F1100698D1D4ED227AF4EE42
:10455800677AF1EE10FA3ED6ABB9694618A802F0B0
:1045680005F8834914A801F0C2FF14A918A802F09D
:1045780072F80146684601F0EAFF14A801F070FFDE
:1045880018A801F06DFF694614A801F0EFFF7B49F8
:1045980010A801F0ACFF10A914A802F05CF894ED83
:1045A800220A0546062118A802F017F818A9284675
:1045B80002F051F80146684601F0C9FF18A801F059
:1045C8004FFF10A801F04CFF14A801F049FF6C4BF5
:1045D800C4F888300023D4ED237AF4EE677AF1EE3C
:1045E80010FA3ED6ABB9694618A801F0BFFF60497A
:1045F80014A801F07CFF14A918A802F02CF80146B1
:10460800684601F0A4FF14A801F02AFF18A801F0D9
:1046180027FF694614A801F0A9FF5A4910A801F01C
:1046280066FF10A914A802F016F894ED230A0546AF
:10463800062118A801F0D1FF18A9284602F00BF8A6
:104648000146684601F083FF18A801F009FF10A889
:1046580001F006FF14A801F003FF494BC4F88C30A1
:104668000023D4ED247AF4EE677AF1EE10FA3ED600
:10467800ABB9694618A801F079FF3D4914A801F0C3
:1046880036FF14A918A801F0E6FF0146684601F0B4
:104698005EFF14A801F0E4FE18A801F0E1FE6946E7
:1046A80014A801F063FF384910A801F020FF10A9F1
:1046B80014A801F0D0FF94ED240A0546062118A895
:1046C80001F08BFF18A9284601F0C5FF014668468E
:1046D80001F03DFF18A801F0C3FE10A801F0C0FECC
:1046E80014A801F0BDFE264BC4F890300023D4F87E
:1046F800A020002A5AD0ABB9694618A801F036FFA5
:104708001B4914A801F0F3FE14A918A801F0A3FF8F
:104718000146684601F01BFF14A801F0A1FE18A885
:1047280001F09EFE694610A801F020FF17490CA869
:1047380001F0DDFE0CA910A801F08DFF04F1980529
:104748000646294614A801F011FF14AA214618A804
:10475800FFF714FD18A9304601F07DFF01466846B1
:1047680001F0F5FE18A801F07BFE11E00C840D00A5
:104778003F840D0041840D0050840D0047840D00D6
:104788000000C07F4C840D0052840D005D840D0034
:1047980014A801F065FE0CA801F062FE10A801F053
:1047A8005FFE7D49284601F0F4FE0023D4F8B020CE
:1047B800002A47D0ABB9694618A801F0D7FE774957
:1047C80014A801F094FE14A918A801F044FF0146AA
:1047D800684601F0BCFE14A801F042FE18A801F0DA
:1047E8003FFE694610A801F0C1FE6D490CA801F012
:1047F8007EFE0CA910A801F02EFF04F1A8050646BC
:10480800294614A801F0B2FE14AA214618A8FFF7F9
:10481800B5FC18A9304601F01EFF0146684601F0B4
:1048280096FE18A801F01CFE14A801F019FE0CA8A9
:1048380001F016FE10A801F013FE5749284601F0B2
:10484800A8FE0023D4F8C020002A47D0ABB9694697
:1048580018A801F08BFE514914A801F048FE14A9CC
:1048680018A801F0F8FE0146684601F070FE14A889
:1048780001F0F6FD18A801F0F3FD694610A801F053
:1048880075FE48490CA801F032FE0CA910A801F0E9
:10489800E2FE04F1B8050646294614A801F066FEB2
:1048A80014AA214618A8FFF769FC18A9304601F098
:1048B800D2FE0146684601F04AFE18A801F0D0FD74
:1048C80014A801F0CDFD0CA801F0CAFD10A801F054
:1048D800C7FD3149284601F05CFE0023D4F8D020FA
:1048E800002A3FD0ABB9694618A801F03FFE2B4912
:1048F80014A801F0FCFD14A918A801F0ACFE0146AB
:10490800684601F024FE14A801F0AAFD18A801F0D9
:10491800A7FD694614A801F029FE234910A801F053
:10492800E6FD10A914A801F096FE04F1C805064694
:10493800294618A801F01AFE18A9304601F08BFE86
:104948000146684601F003FE18A801F089FD10A889
:1049580001F086FD14A801F083FD0F49284601F0F7
:1049680018FE00E073B9694618A801F0FFFD434638
:1049780018AA39462046FFF7BDFC044618A801F0DE
:104988006FFD01E06FF0D104684601F069FD204633
:104998001DB0BDE8F08300BF0C840D003F840D00FE
:1049A80065840D006E840D0075840D0038B50468AB
:1049B80005467CB16368013B63605BB923682046A8
:1049C8009B689847A368013BA3601BB923682046EE
:1049D800DB689847284638BD10B5044B044640F8B4
:1049E800183BFFF7E3FF204610BD00BF0C870D0002
:1049F80010B50446FFF7F0FF2046FFF74AFB2046B4
:104A080010BD00007FB501210E2002F0FFFA012140
:104A1800072002F0FBFA264B264A1A6050225A60F9
:104A280000261D4606F108002349214C284410366B
:104A380001F0AFFD802EF5D1204B1F49C4F8883016
:104A480004F19800C4F88C30C4F8903001F0A1FD4E
:104A5800194904F1A80001F09CFD174904F1B800B8
:104A680001F097FD144904F1C80001F092FDC82334
:104A7800C4F89430124B134A1B788DF8003002A802
:104A88003C23114900F090FE03A8FFF78FFF0F4861
:104A980000F090F948B902F089F90D4901F067FA78
:104AA8004FF47A7000F02CFDF1E704B070BD00BF40
:104AB800F8E20320D4E203200C840D000000C07F3C
:104AC8006DE2032081840D0091840D00F0E2032043
:104AD80099840D00000000002DE9F0432DED028BB4
:104AE800574D85B0284600F086F9B0EE408A02F0AE
:104AF8005DF9DFED547A88EE277A044617EE100A3E
:104B080002F0A4FD41EC100B0221204601F048FB05
:104B180002F04CF94C494D4C01F029FA18EE100AF4
:104B280002F094FD4A4ACDE900016421204600F0D4
:104B3800C7FC484902A8FFF7C1FA03A8FFF736FFE8
:104B4800284600F09AF910EE100A02F07FFD06469A
:104B58000F46414ACDE900676421204600F0B0FCC9
:104B68003E4902A8FFF7AAFA03A8FFF71FFF284645
:104B780000F0CCF810EE100A02F068FD8046894675
:104B8800374ACDE900896421204600F099FC35496F
:104B9800354C02A8FFF792FA03A8FFF707FF24A3F2
:104BA800D3E900234046494602F0A4FD00222F4BDA
:104BB80002F0EEFB03F096F8012100EE100A204601
:104BC800FFF78EFA1CA3D3E900233046394602F0DA
:104BD80091FD03F087F8022100EE100A2046FFF746
:104BE8007FFAB0EE480A03212046FFF779FA204BF6
:104BF8001A68204B20461968FFF732FC01210E2065
:104C080002F015FA0121072002F011FA1A4B186870
:104C180000F076FC00210E2002F009FA002107209E
:104C280002F005FA05B0BDEC028BBDE8F08300BFC9
:104C3800CDCCCCCCCCCCFC3F02BC0512143F0A40F6
:104C4800F0E2032000105345AF840D006EE203200C
:104C5800AD840D00BC840D00C5840D00CF840D000B
:104C6800D4840D00E1840D00F8E2032000004040E8
:104C7800F8E10320F0E10320F4E103200B4B10B529
:104C880000221A700A4B0B4C01221A7000F004FA29
:104C9800094800F01BF8204601F0B0FF2046074AFB
:104CA8000749BDE8104002F01DBA00BF6CE20320BE
:104CB8006DE20320D4E20320F0E2032068E203203F
:104CC800E1490D000368C9B29B681847704710B5E1
:104CD8000C4602F0C5F9602100F05CFF02F0C0F953
:104CE800036821469B68984702F0BAF9002100F052
:104CF80054FF02F0B5F90122602100F044FF02F0F0
:104D0800AFF903685B699847C0B210BD38B505466E
:104D1800002404F0020404F0FF013CB92846FFF720
:104D2800D6FF04460A2000F0EBFBF2E702F098F900
:104D3800602100F02FFF02F093F90421FFF7C2FF72
:104D480002F08EF9002100F028FF02F089F9022212
:104D5800602100F018FF02F083F903685B69984747
:104D680084B202F07DF903685B69984740EA042041
:104D7800C0F30B1300EE103ABBEECE0A38BD38B5BF
:104D880014460D4602F06CF9602100F003FF02F0B2
:104D980067F9036829469B68984702F061F9036838
:104DA80021469B68984702F05BF90021BDE838402E
:104DB80000F0F3BE38B5044602F052F900F0D4FE14
:104DC8000C212046FFF783FF054601F0EFFF102274
:104DD800294601F005F9C42D0BD12046B922262118
:104DE800FFF7CDFF204607221321FFF7C8FF012058
:104DF80038BD002038BD38B5392226210546FFF7D1
:104E0800BEFF002404F0040404F0FF013CB9284666
:104E1800FFF75DFF04460A2000F072FBF2E702F09C
:104E28001FF9602100F0B6FE02F01AF90121FFF720
:104E380049FF02F015F9002100F0AFFE02F010F969
:104E48000322602100F09FFE02F00AF903685B6903
:104E58009847040202F004F903685B699847204305
:104E6800040202F0FDF803685B69984720430309D0
:104E780000EE103ABAEECF0A38BD38B5B92226216D
:104E88000546FFF77CFF002404F0040404F0FF014A
:104E98003CB92846FFF71BFF04460A2000F030FB08
:104EA800F2E702F0DDF8602100F074FE02F0D8F8B5
:104EB8000121FFF707FF02F0D3F8002100F06DFE93
:104EC80002F0CEF80322602100F05DFE02F0C8F87F
:104ED80003685B699847040202F0C2F803685B69DB
:104EE80098472043040202F0BBF803685B699847BF
:104EF8002043030900EE103ABAEECE0A38BD00F09E
:104F0800CBB800F0C9B8000008B500F0C5F8014BEF
:104F1800186008BDF4E2032070B50446C83001F0FB
:104F28009FFA04F1B80001F09BFA04F1A80001F01F
:104F380097FA04F1980001F093FA14F1080608D0E2
:104F480004F18805B54204D0103D284601F088FADE
:104F5800F8E7204670BD0000002250232DE9F047F5
:104F680080E80C0000F10806044600F1880935467F
:104F780030462149103601F0BAFA4E45F8D104F10D
:104F8800980A1D49504604F1A80801F0B0FA04F146
:104F9800B8071949404601F0AAFA04F1C8061649AB
:104FA800384601F0A4FA1449304601F0A0FA284620
:104FB8001149103501F0EDFAA945F8D10F4BC4F8A5
:104FC8008830C4F88C30C4F890300B49504601F052
:104FD800E0FA0949404601F0DCFA0749384601F091
:104FE800D8FA0549304601F0D4FAC823C4F89430F9
:104FF8002046BDE8F08700BF0C840D000000C07F8C
:1050080010B5064C00F048F82046FFF7A5FF2046EB
:10501800034A0449BDE8104002F064B8F8E20320EE
:1050280068E20320214F0D0008B5024B1B689B68FE
:10503800019308BD4802030008B5024B1B681B69B1
:10504800019308BD4802030008B5024B1B685B6961
:10505800019308BD4802030008B5024B1B681B6B8F
:10506800019308BD4802030008B5024B1B685B6C3E
:10507800019308BD4802030008B5024B1B685B6832
:10508800019308BD1802030008B5024B1B685B6951
:10509800019308BD1802030008B5024B1B681B6882
:1050A800019308BD2C02030008B5024B1B689B68DE
:1050B800019308BD2C02030008B5024B1B68DB688E
:1050C800019308BD2C02030008B5024B1B681B693D
:1050D800019308BD2C02030008B5024B1B68DB686E
:1050E800019308BD2802030008B5024B1B685B69E1
:1050F800019308BD2802030008B5024B1B689B6991
:10510800019308BD2802030008B5024B1B68DB6940
:10511800019308BD2802030008B5024B1B681B6AEF
:10512800019308BD2802030008B5024B1B685B6A9F
:10513800019308BD2802030008B5024B1B689B6A4F
:10514800019308BD2802030008B5024B1B68DB6AFF
:10515800019308BD2802030008B5024B1B681B6BAE
:10516800019308BD2802030008B5024B1B685B6B5E
:10517800019308BD2802030008B5024B1B681B6C8D
:10518800019308BD2802030008B5024B1B685B6940
:10519800019308BD6C02030008B5024B1B685B69EC
:1051A800019308BD6402030008B5024B1B681B6A23
:1051B800019308BD6402030008B5024B1B689B6A93
:1051C800019308BD6402030008B5024B1B689B6885
:1051D800019308BD6802030008B5024B1B68DB6831
:1051E800019308BD6802030008B5024B1B689B6960
:1051F800019308BD3802030008B5024B1B68DB6940
:10520800019308BD3802030008B5024B1B681B6AEE
:10521800019308BD3802030008B5024B1B689B6A5E
:10522800019308BD3802030008B5024B1B681B6BCD
:10523800019308BD3802030008B5024B1B689B6B3D
:10524800019308BD3802030008B5024B1B68DB69EF
:10525800019308BD3002030008B5024B1B681B6AA6
:10526800019308BD3002030008B5024B1B681B6898
:10527800019308BD3C02030008B5024B1B68DB68BC
:10528800019308BD3C02030008B5024B1B681B696B
:10529800019308BD3C02030008B5024B1B685B691B
:1052A800019308BD3C02030008B5024B1B689B69CB
:1052B800019308BD3C02030008B5024B1B68DB697B
:1052C800019308BD3C02030008B5024B1B681B6A2A
:1052D800019308BD3C02030008B5024B1B689B6A9A
:1052E800019308BD3C02030008B5024B1B681B680C
:1052F800019308BD4C02030008B5024B1B681B69EB
:10530800019308BD4C02030008B5024B1B685B699A
:10531800019308BD4C02030008B5024B1B689B694A
:10532800019308BD4C02030008B5024B1B68DB69FA
:10533800019308BD4C02030008B5024B1B681B6AA9
:10534800019308BD4C02030008B5024B1B681B6D96
:10535800019308BD6002030008B5024B1B685B6837
:10536800019308BD2002030008B5024B1B685B6966
:10537800019308BD2002030008B5024B1B68DB6CD3
:10538800019308BD2002030008B5024B1B685B6D42
:10539800019308BD2002030008B5034B1B68D3F82E
:1053A8008830019308BD00002002030008B5034BB4
:1053B8001B68D3F89430019308BD00002002030055
:1053C80008B5024B1B681B6A019308BD4402030021
:1053D80008B5024B1B68DB6B019308BD4402030050
:1053E80008B5024B1B685B68019308BD40020300C7
:1053F80008B5024B1B689B68019308BD4002030077
:1054080008B5024B1B68DB68019308BD4002030026
:1054180008B5024B1B681B69019308BD40020300D5
:1054280008B5024B1B685B69019308BD4002030085
:1054380008B5024B1B689B69019308BD4002030035
:1054480008B5024B1B68DB69019308BD40020300E5
:1054580008B5024B1B681B6A019308BD4002030094
:1054680008B5024B1B681B6B019308BD4002030083
:1054780008B5024B1B685B6B019308BD4002030033
:1054880008B5024B1B681B68019308BD1C0203008A
:1054980008B5024B1B685B68019308BD1C0203003A
:1054A80008B5024B1B689B68019308BD1C020300EA
:1054B80008B5024B1B68DB68019308BD1C0203009A
:1054C80008B5024B1B68DB69019308BD1C02030089
:1054D80008B5024B1B68DB6A019308BD1C02030078
:1054E80008B5024B1B681B6B019308BD1C02030027
:1054F80008B5024B1B68DB6B019308BD1C02030057
:105508000021FFF731BF10B5836804460BB901F0DD
:10551800EEFDC3689847A3681BB1032221462046C5
:1055280098472046BDE81040FEF7B3BD70470020FD
:10553800704710B50446FEF7ACFD204610BD08B50F
:1055480008B1FFF7F6FF08BD10B58368044613B12C
:10555800032201469847204610BD38B5C468D4B127
:105568002378022B02D1E068FFF792FF65682DB11E
:105578002846FFF7E9FF2846FEF78BFDA5682DB101
:105588002846FFF7E1FF2846FEF783FD2046BDE8E1
:105598003840FEF77EBD38BD13B5044691E80500D6
:1055A80000234B600B602060626001A801930093A8
:1055B800FFF7FCF9204602B010BD0B68036013B179
:1055C8005A6801325A607047F7B50C4602AD54F874
:1055D800043B45F8083D06460F4601A82146FFF75B
:1055E800ECFF29463046FFF7D7FF01A8FFF7DEF9A1
:1055F8002046FFF7DBF93846FEF74BFD304603B08F
:10560800F0BD13B50B46044603C88DE8030093E8C4
:10561800030084E803009DE8030083E8030002B068
:1056280010BD826810B50AB901F061FDC368BDE814
:105638001040184708B5006800F11001FFF7F1FFA6
:1056480008BD826810B50AB901F051FDC368BDE80C
:105658001040184708B5006800F11001FFF7F1FF86
:1056680008BD38B5002383608B6804460D462BB10E
:1056780002229847EB68E360AB68A360204638BD18
:105688002DE9F0414FF69C7386B00468B1F9042007
:105698008B8000230F688DF800300B604FF00200FC
:1056A800D4E84F1F994203D1C4E8450F002DF7D124
:1056B80002D08DF800106AE014F10C051EBFE760F7
:1056C80022821F460123BFF35F8F0020637004F11D
:1056D8000803BFF35F8F53E8006F43E80002002A16
:1056E800F9D1BFF35F8F002E51D0FFF745FE20B1EF
:1056F80029463046FFF795FF43E031466846FFF7F5
:10570800B0FFE068B4F9105008B102F051FD049000
:105718001020ADF81450FEF7BAFC054630B34FF030
:105728000008C0F808801820FEF7B1FC0446C0B194
:10573800C0F8088001466846FFF763FF029BA2682D
:10574800A360039B0292E268E360BDF81430A38271
:105758004FF69C73ADF81430049B03922361CDF887
:1057680010800E4BEB600E4B2C60AB600498FFF77B
:105778008FFE6846FFF7E8FE002229460948FFF732
:1057880003FE3046FFF7E0FE3046FEF782FC38465F
:10579800FFF77EFE06B0BDE8F08100BF3D560D0064
:1057A80099580D000F550D002DE9F04F8BB007AD3E
:1057B8004FF0000B0646994614200C230F469046DE
:1057C8009DF850A0C5F804B0C5F808B00793FEF7D7
:1057D8005EFC044638B180F800B080F801B0C0F82B
:1057E80004B0C0F808B00023102003940493FEF717
:1057F8004EFC28B1012343608360234B0360C460DF
:105808000490224B08930820FEF741FC044628B177
:10581800039B40F8043B04A9FFF7CFFE00955FFA0D
:105828008AF34A46414638460994FFF7C9FDB8B994
:10583800039B5B7803F0FF0293B94FF69C7305A9AD
:1058480003A80592ADF81830FFF71AFF0598FFF77F
:105858001FFE05A80999FFF7B7FE06A8FFF7A6F8E7
:10586800039B059304A906A8FFF7A7FE05A93046E0
:10587800FFF792FE06A8FFF799F804A8FFF796F835
:1058880030460BB0BDE8F08F00850D00015A0D00C1
:10589800022AF8B5044606D0032A17D0012A20D1D7
:1058A8000B6803601DE018200E68FEF7F0FB054644
:1058B80050B13146FFF7D5FE3069B6F9147008B11A
:1058C80002F076FC2861AF8225600AE0046844B1E2
:1058D8002069FFF7DDFD2046FFF736FE2046FEF77C
:1058E800D8FB0020F8BD38B5002383608B680446D8
:1058F8000D462BB102229847EB68E360AB68A360C2
:10590800204638BD022A70B5044606D0032A11D0B5
:10591800012A17D10B68036014E014200E68FEF703
:10592800B6FB054620B13146FFF7DDFF337C2B740B
:10593800256007E004682CB12046FFF705FE2046E5
:10594800FEF7A7FB002070BDF0B5002387B00C461A
:10595800BFF35F8F50E8006F40E80032002AF9D1AA
:10596800BFF35F8F002E3ED01846FFF705FD0746B0
:1059780020B121463046FFF764FE2EE0314601A8EB
:10598800FFF7B1FF23788DF814301020FEF77FFB66
:105998000546D0B187601420FEF779FB044678B13C
:1059A8008760014601A8FFF72CFE039BA268A3604D
:1059B800049B0392E268E3609DF814300492237418
:1059C8000A4BEB600A4B2C60AB6001A8FFF7BCFDEB
:1059D800002229460748FFF7D7FC3046FFF7B4FDF9
:1059E8003046FEF756FB07B0F0BD00BF5D560D0010
:1059F8000D590D000F550D0030B585B004460D4604
:105A080068461146FFF7E0FD7CB124B228460DB187
:105A180002F0CEFB029002A96846ADF80C40FFF7F1
:105A28002FFE0298FFF734FD1DE000988DF808401E
:105A38004FF00102D0E84F3FA34203D1C0E8412F05
:105A48000029F7D102D08DF808300CE010F10C01D4
:105A58004FF0010318BF0373BFF35F8F043000F8E2
:105A6800033CFFF771FF01A8FEF7A0FF05B030BDAA
:105A7800002211464068FFF7EBBC0022114640683F
:105A8800FFF7F6BC00224068FFF7EABC002281F06D
:105A980001014068FFF7D4BC00231A461946406844
:105AA800FFF7C6BC00231A4619464068FFF7B8BC82
:105AB800002211464068FFF7ABBC0022114640683F
:105AC800FFF796BC002202214068FFF799BC00232B
:105AD8001A464068FFF784BC024B03225A60024A08
:105AE8001A607047D0E303201C850D007047F8B595
:105AF800064615460C468F18BC4206D0336814F883
:105B0800011B9B6830469847F6E72846F8BD0022F7
:105B1800007CFFF701BB0021007CFFF705BB0021DB
:105B2800007CFFF709BB0021007CFFF70DBB0021BB
:105B3800007CFFF711BB10B50446FEF7AAFA204611
:105B480010BD000010B504464FF47A730846A360F0
:105B58000021044B207461602360FFF70DFB204691
:105B680010BD00BF50850D0000231A461946007C61
:105B7800FFF7B2BA13B50024007C0094FFF7B4FA1B
:105B8800C0B202B010BD0123FFF7F4BF0022007CB1
:105B9800FFF7B2BAC9B2FFF7F9BF0022007CFFF7DE
:105BA800B3BA0021007CFFF7DFBA704710B504468E
:105BB800FEF76FFA204610BDF0B5037D062B8DB0B9
:105BC8000E4600F104074FF0000402D000F108056A
:105BD80018E00CAD394605F8304D2F232A460A2027
:105BE800FFF7DAFA284602F0FEFA33680246DB6865
:105BF8002946304698470FE024B12E21304600F060
:105C0800A7F9044415F8011D0A22304600F0E6F908
:105C1800BD420444F0D120460DB0F0BD10B5054B8F
:105C28000446112240F8043B002102F078FA20468D
:105C380010BD00BF78850D000346074A10B543F82C
:105C4800042B01F1100251F8044B43F8044B914224
:105C5800F9D10A781A7010BD78850D00037D042BE0
:105C680001D1406808E0062B0AD1436853B1836824
:105C780043B1C36833B10069003018BF01207047D1
:105C8800002070471846704710B59DF8084044EA50
:105C9800032343EA024242EA016104234160037597
:105CA80010BD37B50D788B784A78C97800912946A8
:105CB800FFF7EAFF03B030BD014B024A1A60704794
:105CC800D8E3032034860D00002211464068FFF710
:105CD800BFBB002211464068FFF7CABB00224068DC
:105CE800FFF7BEBB002281F001014068FFF7A8BBA7
:105CF80000231A4619464068FFF79ABB00231A4644
:105D080019464068FFF78CBB002211464068FFF730
:105D18007FBB002211464068FFF76ABB00220221C0
:105D28004068FFF76DBB00231A464068FFF758BB71
:105D380010B103685B681847704738B504460068B7
:105D4800D0B1FFF771F9B8B9237C1BB9206808B145
:105D5800FFF772F9656855B1AB681BB10322294694
:105D6800284698472846FEF794F900236360206880
:105D7800FFF76AF90023236038BD000038B50B4BE4
:105D880003600446D0F8CC0108B1FEF784F9D4F8D2
:105D9800C4512DB12846FFF7D0FF2846FEF779F900
:105DA800A06808B1FFF7C4FF204638BD68860D001B
:105DB80038B50D4C0D4B23600025022304F5E47023
:105DC8006360A560C4F8C451C4F8C851FFF74CF922
:105DD800074BC4F8CC5123602046064A0649BDE863
:105DE800384001F07FB900BFDCE303209C860D003A
:105DF80068860D0068E20320855D0D0000231A46C1
:105E08004068FFF7EDBA002202214068FFF7F8BAB0
:105E1800002211464068FFF7EBBA0022114640689D
:105E2800FFF7F6BA00231A4619464068FFF7F8BA92
:105E380000231A4619464068FFF7FABA002281F093
:105E480001014068FFF7FCBA00224068FFF708BB71
:105E5800002211464068FFF70BBB0022114640683C
:105E6800FFF7F6BA70B58CB014460646FFF7D6FEB3
:105E78000CAB0022114643F8302D2046FFF7ACF951
:105E8800014658BB009B4BB35A68022A0ED00A2A17
:105E980024D15C69112201A802F041F906238DF88A
:105EA800143001AD04F10803183405E0596930468F
:105EB8000431FFF7F6FE11E0186859682A4603C254
:105EC8000833A3421546F7D101A906A807ADFFF785
:105ED800B3FE0FCD341D0FC42B6823700098FFF755
:105EE80073F930460CB070BD024B034A1A600022A9
:105EF8005A607047ACE503209C860D00F8B506464D
:105F08000D468F180024BD420CD0336815F8011BCC
:105F18009B6830469847002801DB0444F3E7002CCF
:105F280008BF04462046F8BD70B505460C4608462D
:105F380049B102F058F92B68024621462846DB6829
:105F4800BDE87040184770BD08B5FFF7EDFF08BD04
:105F580003689B68184738B50D210546FFF7F8FF19
:105F68000A2104462846FFF7F3FF204438BD38B518
:105F78000546FFF7D9FF04462846FFF7ECFF204403
:105F880038BD30B58BB00B4600218DF82410012A9E
:105F980098BF0A220DF12304B3FBF2F505FB123377
:105FA80003F0FF03092B94BF30333733DBB22146AC
:105FB80004F801392B46002DEED1FFF7B5FF0BB0E1
:105FC80030BD10B42AB903685DF8044B9B68C9B2A8
:105FD8001847D2B25DF8044BFFF7D3BFFFF7F1BF04
:105FE80038B50546FFF7EDFF04462846FFF7B3FF2F
:105FF800204438BDFFF7E5BF2DE9F04107460E46BE
:1060080015462AB90368C9B29B68BDE8F04118472C
:106018000A2A02D1002901DA04E0D2B2BDE8F0412F
:10602800FFF7AFBF2D21FFF793FF2A4604467142C1
:106038003846FFF7A6FF2044BDE8F0812DE9F04778
:1060480057EC106B82460D4610EE102A3B4610EEB8
:10605800100A394601F0E8FD08B1484912E027F076
:1060680000494FF0FF32464B3046494601F0DCFD0F
:1060780068B94FF0FF32424B3046494601F0B6FD51
:1060880028B940495046FFF74FFFBDE8F0874FF069
:1060980060423D4B3046394601F0BCFD08B13B49F2
:1060A800F0E74FF060423A4B3046394601F094FD34
:1060B8000028F4D1002200233046394601F08CFD37
:1060C80040B12D215046FFF743FF07F10043044636
:1060D8001F4600E004462F494FF0000800205FFAF1
:1060E80088F39D4206D900222B4B01F02DFC08F1C4
:1060F8000108F4E732463B4601F04AF90F460646E6
:1061080001F0D0FD0A22014680465046FFF739FFCC
:1061180004447DB3404601F077FA02460B46304608
:10612800394601F033F906460F4650461B49FFF73A
:10613800FBFE0444184B00223046394601F0DAFAD7
:106148000F46064601F086FD0A2201468046504663
:10615800FFF752FF0444404601F066FA02460B4638
:106168003046394601F012F9013D15F0FF050646A3
:106178000F46DFD12046BDE8F08700BFC8860D0076
:10618800FFFFEF7FD2860D00FFFFEF41CC860D00A9
:10619800FFFFEFC10000E03F00002440D0860D0063
:1061A800C9B2FFF74BBF10B50446FFF7CDF920463B
:1061B80010BD00000348044A04490023836000F02E
:1061C80091BF00BFB4E5032068E20320AF610D0072
:1061D800704710B50446FDF75CFF204610BD00006F
:1061E80070B5084B0360044600250E4640F80C5F66
:1061F800FEF732FF30462671FFF726F8A5602046E5
:1062080070BD00BFE0860D000079FFF725B810B516
:106218000446FEF739FFE060236820465B6998472B
:10622800002808DAFEF730FFE368C01AA36898422E
:10623800F2D34FF0FF3010BD10B50446FEF724FF2F
:10624800E060236820469B699847002808DAFEF733
:106258001BFFE368C01AA3689842F2D34FF0FF30DF
:1062680010BD10B504462046FFF7E6FF00280ADBFC
:106278002D2808D0A0F13003092B04D92368204623
:106288005B699847EFE710BD2DE9F0479A460B7810
:10629800089E80460F4691469BB10024254601E0A2
:1062A80096B900244046FFF7B2FF002813DD7B5D56
:1062B800984218BF00257B5D9842F1D10135A94568
:1062C800EED80120BDE8F0871AF804309842E8D1EA
:1062D8000134A642E6D80020BDE8F087F7B50646A7
:1062E800084615460C4601F07EFF0746284601F091
:1062F8007AFF2B4600903A4621463046FFF7C4FF06
:1063080003B0F0BD0022FFF7E9BF2DE9F0410546D3
:106318000F46FFF7A6FF002821DB002426464FF092
:106328000A08B8420AD02D2807D0A0F13003092B5B
:1063380004D808FB0404303C00E001262B682846FA
:106348005B6998472846FFF777FFA0F13003092BD0
:10635800E7D98742E5D02EB16042BDE8F081002040
:10636800BDE8F0812046BDE8F0810121FFF7CDBFEF
:1063780038B50D460749044600F0B9F82846FFF736
:1063880046FF002804DBC1B2204600F057F9F5E7C4
:10639800204638BD0C840D002DE9F14F59EC108BC7
:1063A80007460E460022002310EE100A494601F067
:1063B80013FC28B109F1004399462D2333700136A7
:1063C800002301240A22D9B28F4202D9544301334F
:1063D800F9E7204601F028F942464B4601F08AF9D0
:1063E80082468B4601F0E6FC8046894601F04CF96E
:1063F80002460B465046594600F0C8FF0022174B8C
:1064080001F0FEFB18B118F1010849F10009E51780
:1064180022462B464046494601F0B4FC01230A2295
:10642800314600F038FDAFB1304601F0DCFE2E23D6
:1064380033540130064422462B464046494601F073
:10644800A1FC3B46104631460A2201B0BDE8F04F98
:1064580000F021BD01B0BDE8F08F00BF0000E03FB3
:1064680010B504460068FFF713F8204610BD10B5B4
:106478000446006808B1FFF70BF800232360A36007
:10648800636010BD38B504460D4600680131FFF75A
:1064980007F810B184E82100012038BD10B5036861
:1064A800044613B143688B4207D22046FFF7EAFF40
:1064B80020B1A3680BB922681370012010BD70B514
:1064C8000E46114604461546FFF7E8FF18B9204660
:1064D800FFF7CDFF09E02A463146A560206801F0A4
:1064E80013FE2268A3680021D154204670BD38B538
:1064F8000023044603604360836003730D4639B18B
:10650800084601F070FE294602462046FFF7D7FFED
:10651800204638BD38B5054600680C4660B16A6843
:106528008B689A4206D3096801F039FEA368AB600C
:1065380000230AE0FEF7ACFF23682B6063686B60FA
:10654800A368AB60002323606360A36038BD884202
:1065580010B50B46044607D0096819B19A68FFF7C9
:10656800AEFF01E0FFF783FF204610BD10B5002302
:1065780004460360436083600373FFF7E8FF204627
:1065880010BD884210B5044601D0FFF7C3FF20466E
:1065980010BD38B505460C4641B1084601F023FE4A
:1065A800214602462846FFF78AFF01E0FFF75FFF12
:1065B800284638BD10B5044600238AB023606360BE
:1065C800A3602373084601A900F08DFC01A92046A9
:1065D800FFF7DFFF20460AB010BD30B500238BB0AF
:1065E8000360436083600373044610EE100ACDB263
:1065F80001F02CF841EC100B01A92846FFF7CCFE5E
:1066080001A92046FFF7C5FF20460BB030BD70B585
:1066180004460E4609B9002070BD6AB18368D518D2
:106628002946FFF73BFF0028F5D02068A3683146CC
:10663800184401F0B4FDA560012070BD07B5002322
:106648008DF80410012201A98DF80530FFF7DFFF4E
:1066580003B05DF804FB10B58A6809680446FFF7C3
:10666800D6FF10B92046FFF702FF204610BD836809
:106678008B4203D9006810B1405C70470020704716
:10668800FFF7F5BF006808B101F02CBD70470000A6
:10669800044B00204FF6FF72187058809A80FEF75E
:1066A8005BBE00BFC4E5032037B502AC036804F83D
:1066B800011DDD6B01224FF0FF332146A84703B0CF
:1066C80030BD10B40368DC6B4FF0FF33A4465DF8AF
:1066D800044B604737B502AC036804F8011DDD6B55
:1066E800214613460122A84703B030BD704738B58C
:1066F80043691A68002A044605DAB3F88620B3F815
:1067080084309A4201D001250BE003681B69984741
:10671800002814BF0125002503D123682046DB6A21
:106728009847284638BD43691868C043C00F70476A
:1067380070470020704710B50446FDF7AAFC2046B4
:1067480010BDFDF7A6BC00002DE9F043984603688C
:1067580093B0DB6A0C4606461746984712AB0025ED
:1067680043F8485D2A4629462046FEF735FD0028AD
:106778003ADB009B002B39D05B69002B36D006A88A
:10678800FFF74CFA009B5C696378022B01D1211D4D
:1067980013E00A2B14D11122294601A801F0BFFCED
:1067A800A36833BBE36823BB4FF6FF702569FEF788
:1067B800FBFC85421DD104F1140106A8FFF771FA0C
:1067C80006A8FFF74BFA88B1336807ADD3F82090D5
:1067D800184B0C930FCD0DAC0FC42B6823703A46A1
:1067E80043460CA93046C84704461CE04FF0FF3426
:1067F80019E004F1080301AD1834186859682A46ED
:1068080003C20833A3421546F7D1062301A90CA8F1
:106818000DAD8DF81430FFF70FFA0FCD07AC0FC48C
:106828002B682370CCE70098FEF7CEFC204613B007
:10683800BDE8F08378850D007FB5164600224260DA
:10684800029203925A1C04460D4608D04FF47A72FD
:10685800B3FBF2F1029102FB11314A4303926069E2
:106868000823009341F205026B4440F6FF7100686B
:10687800FEF7BAFC002808DB606900233246294687
:106888000068FEF7D1FC002804DAFEF731FE036841
:106898006360002004B070BD10B5036804469B68AF
:1068A8009847A368013BA3602BB923682046DB689F
:1068B800BDE81040184710BD70B504464D69054B3A
:1068C80044F8043B8C3506460FCD0FC42B68237063
:1068D800304670BD78850D0010B54369B3F8862041
:1068E800B3F884309A42044605D06269B2F884301D
:1068F8001344187910BD03681B6998470028F4D120
:106908004FF0FF3010BD10B54369B3F88620B3F8D7
:1069180084309A42044608D06269B2F88430591C1F
:106928001344A2F88410187910BD03681B699847AE
:106938000028F1D14FF0FF3010BDF8B54369174674
:10694800B3F88620B3F884309A4205460E4606D13D
:1069580003681B69984710B94FF0FF3414E0696960
:10696800B1F88430B1F88640E41ABC4228BF3C46EE
:10697800194422460431304601F0C6FB6A69B2F870
:1069880084302344A2F884302046F8BD42690023AD
:10699800A2F884304269A2F8863070472DE9F041A8
:1069A800984603680D468AB0DB6A0646174698473C
:1069B8002B7D7469042B0CBF02200A2006220121BA
:1069C800FEF73AFC206073691C68002C5BDB3046DC
:1069D800FFF7DCFFB8F1000F17D0002303A95FFA17
:1069E80088F00393ADF81030FEF7CEFB002849DBA2
:1069F80070690623009341F20B0203AB40F6FF7166
:106A08000068FEF7F1FB00283CDB1C24224600212D
:106A180003A801F084FB2B7D8DF80C40042B0CD1CE
:106A2800022338468DF80D30FEF7C6FBADF80E0090
:106A38006868FEF7B9FB049013E00A2338468DF81E
:106A48000D30FEF7B9FB05ACADF80E002B1D05F1B6
:106A5800140718685968224603C20833BB42144613
:106A6800F7D173691C2203A91868FEF7CDFB00282B
:106A780008DB2C1D0FCC76698C360FC62368337063
:106A8800012404E0044633683046DB6A9847204610
:106A98000AB0BDE8F08110B54369044618680028BB
:106AA80001DBFEF7A9FB63694FF0FF321A606069EA
:106AB800112200218C3001F032FB2046BDE8104045
:106AC800FFF764BF30B54269B2F886308BB0044630
:106AD8001BB1B2F884209A4240D063691868002834
:106AE8003FDBB3F886507F2D3BD8191DC5F18002D6
:106AF80008232944FEF790FB00280CDD6369B3F8EE
:106B080086200AB9A3F884206269B2F8863018444E
:106B1800A2F8860025E0FEF7EBFC03680B2B20D0DB
:106B2800FEF7E6FC03680B2B1BD0202300250293FD
:106B38000395FEF7DDFC036801930E4B009302AA50
:106B48002B460D493220FEF7FFFB63691868FEF7F4
:106B580053FB63694FF0FF321A6002E0FFF716FF3C
:106B6800BBE76269B2F88630B2F88400181A0BB035
:106B780030BD00BF57870D0050870D0010B50023AA
:106B880004460160A0F88430A0F886308830FFF70A
:106B980045F8204610BD00004FF47A7270B5002306
:106BA8008260144A43600260436183610446A02006
:106BB8000E46FDF76CFA054610B13146FFF7DEFFC9
:106BC8001420FDF764FA034628B10122426082606E
:106BD800094A02600561A0696561A36128B143683B
:106BE800013B43600BB9FFF757FE2046FFF7CEFE87
:106BF800204670BD0C870D00F0860D0010B54FF0D3
:106C0800FF310446FFF7C8FF204610BD10B5044603
:106C18000068002801DBFEF7EFFA204610BD10B52A
:106C280004692046FFF7F2FF24B12046BDE8104072
:106C3800FDF72FBA10BD0000024B1A68024B1A600C
:106C4800704700BFFCE10320CCE503207047417486
:106C58007047007CFEF740BB007CFEF715BB007C4C
:106C6800FEF722BB007CFEF717BB007CFEF724BBB7
:106C780010B50446FDF70DFA204610BD70B5457CE9
:106C880004460E4625B9007CFEF726FB002805DDE4
:106C98003146207CBDE87040FEF7EEBA284670BD4C
:106CA80010B5044608461146002262604FF47A7215
:106CB800A260054A22600122207462741A46FEF717
:106CC800D3FA204610BD00BF98870D00007CFEF760
:106CD800FBBA000038B50C4D296811F0010411D138
:106CE8002846FDF7DAF968B1084A094B09482146F0
:106CF800FFF7D6FF2846FDF7D5F9074A07490548A3
:106D080000F0F0F9034838BD68E603206CE603207C
:106D1800E4E50320D0E5032068E20320556C0D006C
:106D28004174704770470021007CFEF7F5BA0121D5
:106D3800007CFEF7F1BA007CFEF7E6BA007CFEF7AD
:106D4800DBBA38B50446007C0D46FEF7DDFA0028AC
:106D580001DC607C20B12946207CFEF7E5FA0120A1
:106D680038BD007CFEF7E8BA10B50446FDF791F986
:106D7800204610BD10B50446002363604FF47A73B3
:106D8800A360054B236001230846217463741146F0
:106D9800FEF7AAFA204610BDC8870D0010B51422C8
:106DA8000446002101F0BBF9204610BD30B50E4D58
:106DB80087B001A8FFF7F2FF296811F0010410D18C
:106DC8002846FDF76AF960B101AA21460748FFF78E
:106DD800D1FF2846FDF766F9054A0649034800F041
:106DE80081F9024807B030BDF0E60320F4E603203D
:106DF80068E203202D6D0D00002211464068FEF761
:106E080007BB002211464068FEF722BB002211464C
:106E18004068FEF72DBB00224068FEF721BB002228
:106E280081F001014068FEF70BBB00231A461946A2
:106E38004068FEF7FDBA00231A4619464068FEF777
:106E4800EFBA002211464068FEF7D2BA00220221AA
:106E58004068FEF7D5BA00231A464068FEF7C0BA64
:106E6800024B04225A60024A1A60704708E703205E
:106E7800F8870D0010B5044601F0B5F9013823185C
:106E88002046984206D20278197800F8011B03F8C8
:106E98000129F6E710BD70B50C46911E222920D8AD
:106EA8002546294610B9234430220EE0B0FBF2F6FD
:106EB80002FB1600C1B205F8011B092894BF303146
:106EC800573105F8011C3046EBE7994202D201F828
:106ED800012BFAE7002320460B70FFF7CBFF204673
:106EE80070BD002070BD08B50123FFF7D4FF08BDB1
:106EF80008B50C4B33B1FFF759FF03681B69984776
:106F0800002809DC084B63B1FFF7E4FE03681B693E
:106F18009847002803DC08BDAFF30080F2E7AFF321
:106F2800008008BD000000000000000008B5FFF761
:106F3800DFFFFEF7A9F8014B186008BD14E703202E
:106F480007B5002300931A466FF07701FEF72EFA73
:106F580003B05DF804FB000007B543880A2B08D08E
:106F6800502B09D1094B1B683BB103B05DF804EB0A
:106F78001847FFF7E5FF06E0002300931A466FF075
:106F88007701FEF713FA03B05DF804FB10E703205E
:106F980010B5FEF771F8044601F0CAF8074B13B1B3
:106FA8002046AFF3008000210448FEF711FA0021C3
:106FB8000348BDE81040FEF7EFB900BF000000002D
:106FC800616F0D0010B504460F48FFF71DF928B191
:106FD800A4F10B03022B01D8002010BD00F040F8EB
:106FE800FEF7DFFD08B1012CF6D9FFF773FEFFF7B6
:106FF8006DFE18B1A4F10903012BEDD9232C8CBF28
:107008000020012010BD00BF30E70320232838B539
:1070180004460D460AD8FF2908D0FFF7D3FF28B148
:1070280029462046BDE83840FEF73EB838BD38B599
:1070380004460D46FEF740F8FF2810D0062804D86D
:107048004D2323FA00F0C30709D42046FFF7BAFFFF
:1070580028B129462046BDE83840FEF735B838BD86
:1070680038B50B4D296811F001040FD12846FDF7FA
:1070780014F858B121460748FEF764FD2846FDF785
:1070880011F8054A0549034800F02CF8014838BDB5
:1070980018E703201CE7032068E20320F55A0D00D7
:1070A80070B50C4C0C4E0D4D00212046FFF798F89A
:1070B80020460B4C3246294600F014F801212046A0
:1070C800FFF78EF8324629462046BDE8704000F0AA
:1070D80009B800BF30E7032068E20320D9610D003A
:1070E80040E703200B460146184600F0FFBF08B5ED
:1070F800FEF7EEF9244B1A68D0075CBF01221A602C
:10710800224B1A68D1075CBF01221A60204B1A680B
:10711800D2075CBF01221A601E4B1A68D0075CBFF9
:1071280001221A601C4B1A68D1075CBF01221A6041
:107138001A4B1A68D2075CBF01221A60184B1A68EA
:10714800D0075CBF01221A60164B1A68D1075CBFD2
:1071580001221A60144B1A68D2075CBF01221A6018
:10716800124B1A68D0075CBF01221A60104B1A68CC
:10717800D1075CBF01221A600E4B1A68D2075CBFA8
:1071880001221A60704700BF7CE7032078E70320DC
:1071980074E7032070E703206CE7032068E7032007
:1071A80064E7032060E703205CE7032058E7032037
:1071B80054E7032050E70320184B1A68D1075CBF37
:1071C80001221A60164B1A68D2075CBF01221A60A6
:1071D800144B1A68D0075CBF01221A60124B1A6858
:1071E800D1075CBF01221A60104B1A68D2075CBF36
:1071F80001221A600E4B1A68D0075CBF01221A6080
:107208000C4B1A68D1075CBF01221A600A4B1A6836
:10721800D2075CBF01221A60704700BF9CE70320B9
:1072280098E7032094E7032090E703208CE70320E6
:1072380088E7032084E7032080E70320184B1A68B7
:10724800D1075CBF01221A60164B1A68D2075CBFCF
:1072580001221A60144B1A68D0075CBF01221A6019
:10726800124B1A68D1075CBF01221A60104B1A68CA
:10727800D2075CBF01221A600E4B1A68D0075CBFA8
:1072880001221A600C4B1A68D1075CBF01221A60F0
:107298000A4B1A68D2075CBF01221A60704700BF08
:1072A800BCE70320B8E70320B4E70320B0E70320D6
:1072B800ACE70320A8E70320A4E70320A0E7032006
:1072C800244B1A68D0075CBF01221A60224B1A6847
:1072D800D1075CBF01221A60204B1A68D2075CBF35
:1072E80001221A601E4B1A68D0075CBF01221A607F
:1072F8001C4B1A68D1075CBF01221A601A4B1A6826
:10730800D2075CBF01221A60184B1A68D0075CBF0D
:1073180001221A60164B1A68D1075CBF01221A6055
:10732800144B1A68D2075CBF01221A60124B1A6804
:10733800D0075CBF01221A60104B1A68D1075CBFE6
:1073480001221A600E4B1A68D2075CBF01221A602C
:10735800704700BFECE70320E8E70320E4E70320D9
:10736800E0E70320DCE70320D8E70320D4E7032085
:10737800D0E70320CCE70320C8E70320C4E70320B5
:10738800C0E7032081F0004102E000BF83F0004322
:1073980030B54FEA41044FEA430594EA050F08BFA8
:1073A80090EA020F1FBF54EA000C55EA020C7FEA6C
:1073B800645C7FEA655C00F0E2804FEA5454D4EBE9
:1073C8005555B8BF6D420CDD2C4480EA020281EAB3
:1073D800030382EA000083EA010180EA020281EAEB
:1073E8000303362D88BF30BD11F0004F4FEA01313D
:1073F8004FF4801C4CEA113102D0404261EB41014C
:1074080013F0004F4FEA03334CEA133302D05242D1
:1074180063EB430394EA050F00F0A780A4F101048D
:10742800D5F1200E0DDB02FA0EFC22FA05F28018C7
:1074380041F1000103FA0EF2801843FA05F35941AD
:107448000EE0A5F120050EF1200E012A03FA0EFC2C
:1074580028BF4CF0020C43FA05F3C01851EBE37156
:1074680001F0004507D54FF0000EDCF1000C7EEB73
:1074780000006EEB0101B1F5801F1BD3B1F5001FB1
:107488000CD349085FEA30004FEA3C0C04F10104D0
:107498004FEA445212F5800F80F09A80BCF1004FF9
:1074A80008BF5FEA500C50F1000041EB045141EA7B
:1074B800050130BD5FEA4C0C404141EB010111F47C
:1074C800801FA4F10104E9D191F0000F04BF014627
:1074D8000020B1FA81F308BF2033A3F10B03B3F105
:1074E80020020CDA0C3208DD02F1140CC2F10C0295
:1074F80001FA0CF021FA02F10CE002F11402D8BFF3
:10750800C2F1200C01FA02F120FA0CFCDCBF41EABE
:107518000C019040E41AA2BF01EB0451294330BD8D
:107528006FEA04041F3C1CDA0C340EDC04F114046A
:10753800C4F1200220FA04F001FA02F340EA030041
:1075480021FA04F345EA030130BDC4F10C04C4F187
:10755800200220FA02F001FA04F340EA0300294667
:1075680030BD21FA04F0294630BD94F0000F83F4B1
:10757800801306BF81F480110134013D4EE77FEA94
:10758800645C18BF7FEA655C29D094EA050F08BFE0
:1075980090EA020F05D054EA000C04BF19461046C1
:1075A80030BD91EA030F1EBF0021002030BD5FEA05
:1075B800545C05D14000494128BF41F0004130BD2D
:1075C80014F580043CBF01F5801130BD01F0004581
:1075D80045F0FE4141F470014FF0000030BD7FEAF4
:1075E800645C1ABF194610467FEA655C1CBF0B46EF
:1075F800024650EA013406BF52EA033591EA030F06
:1076080041F4002130BD00BF90F0000F04BF0021FD
:10761800704730B54FF4806404F132044FF0000530
:107628004FF0000150E700BF90F0000F04BF0021A9
:10763800704730B54FF4806404F1320410F000450F
:1076480048BF40424FF000013EE700BF42004FEA0A
:10765800E2014FEA31014FEA02701FBF12F07F4387
:1076680093F07F4F81F06051704792F0000F14BF84
:1076780093F07F4F704730B54FF4607401F00045C8
:1076880021F0004120E700BF50EA010208BF70471F
:1076980030B54FF000050AE050EA010208BF704714
:1076A80030B511F0004502D5404261EB41014FF47D
:1076B800806404F132045FEA915C3FF4DCAE4FF081
:1076C80003025FEADC0C18BF03325FEADC0C18BF68
:1076D800033202EBDC02C2F1200300FA03FC20FAB9
:1076E80002F001FA03FE40EA0E0021FA02F1144406
:1076F800C1E600BF70B54FF0FF0C4CF4E06C1CEA1B
:1077080011541DBF1CEA135594EA0C0F95EA0C0F8F
:1077180000F0DEF82C4481EA030621EA4C5123EA02
:107728004C5350EA013518BF52EA033541F4801131
:1077380043F4801338D0A0FB02CE4FF00005E1FBE4
:1077480002E506F00042E0FB03E54FF00006E1FB2E
:1077580003569CF0000F18BF4EF0010EA4F1FF0471
:10776800B6F5007F64F5407404D25FEA4E0E6D41B1
:1077780046EB060642EAC62141EA55514FEAC520C2
:1077880040EA5E504FEACE2EB4F1FD0C88BFBCF53E
:10779800E06F1ED8BEF1004F08BF5FEA500E50F1EF
:1077A800000041EB045170BD06F0004646EA0101B5
:1077B80040EA020081EA0301B4EB5C04C2BFD4EBE7
:1077C8000C0541EA045170BD41F480114FF0000EE0
:1077D800013C00F3AB8014F1360FDEBF002001F04E
:1077E800004170BDC4F10004203C35DA0C341BDCC8
:1077F80004F11404C4F1200500FA05F320FA04F09A
:1078080001FA05F240EA020001F0004221F00041CD
:1078180010EBD37021FA04F642EB06015EEA430E40
:1078280008BF20EAD37070BDC4F10C04C4F1200570
:1078380000FA04F320FA05F001FA04F240EA020023
:1078480001F0004110EBD37041F100015EEA430EF4
:1078580008BF20EAD37070BDC4F1200500FA05F214
:107868004EEA020E20FA04F301FA05F243EA020393
:1078780021FA04F001F0004121FA04F220EA0200A2
:1078880000EBD3705EEA430E08BF20EAD37070BDE8
:1078980094F0000F0FD101F00046400041EB0101C8
:1078A80011F4801F08BF013CF7D041EA060195F0AA
:1078B800000F18BF704703F00046520043EB030364
:1078C80013F4801F08BF013DF7D043EA0603704751
:1078D80094EA0C0F0CEA135518BF95EA0C0F0CD05C
:1078E80050EA410618BF52EA4306D1D181EA0301A2
:1078F80001F000414FF0000070BD50EA410606BF9C
:107908001046194652EA430619D094EA0C0F02D1E0
:1079180050EA013613D195EA0C0F05D152EA033625
:107928001CBF104619460AD181EA030101F0004143
:1079380041F0FE4141F470014FF0000070BD41F08C
:10794800FE4141F4780170BD70B54FF0FF0C4CF466
:10795800E06C1CEA11541DBF1CEA135594EA0C0F85
:1079680095EA0C0F00F0A7F8A4EB050481EA030ED2
:1079780052EA03354FEA013100F088804FEA0333B9
:107988004FF0805545EA131343EA12634FEA022287
:1079980045EA111545EA10654FEA00260EF0004148
:1079A8009D4208BF964244F1FD0404F5407402D29A
:1079B8005B084FEA3202B61A65EB03055B084FEA2B
:1079C80032024FF480104FF4002CB6EB020E75EB28
:1079D800030E22BFB61A754640EA0C005B084FEA50
:1079E8003202B6EB020E75EB030E22BFB61A7546CD
:1079F80040EA5C005B084FEA3202B6EB020E75EB18
:107A0800030E22BFB61A754640EA9C005B084FEA8F
:107A18003202B6EB020E75EB030E22BFB61A75469C
:107A280040EADC0055EA060E18D04FEA051545EA8B
:107A380016754FEA06164FEAC30343EA52734FEA34
:107A4800C2025FEA1C1CC0D111F4801F0BD141EAAD
:107A580000014FF000004FF0004CB6E711F4801F12
:107A680004BF01430020B4F1FD0C88BFBCF5E06FF2
:107A78003FF6AFAEB5EB030C04BFB6EB020C5FEA02
:107A8800500C50F1000041EB045170BD0EF0004E57
:107A98004EEA113114EB5C04C2BFD4EB0C0541EA89
:107AA800045170BD41F480114FF0000E013C90E686
:107AB80045EA060E8DE60CEA135594EA0C0F08BF4A
:107AC80095EA0C0F3FF43BAF94EA0C0F0AD150EA49
:107AD80001347FF434AF95EA0C0F7FF425AF1046DC
:107AE80019462CE795EA0C0F06D152EA03353FF404
:107AF800FDAE1046194622E750EA410618BF52EA81
:107B080043067FF4C5AE50EA41047FF40DAF52EA54
:107B180043057FF4EBAE12E74FF0FF3C06E000BFF1
:107B28004FF0010C02E000BF4FF0010C4DF804CDFE
:107B38004FEA410C7FEA6C5C4FEA430C18BF7FEABE
:107B48006C5C1BD001B050EA410C0CBF52EA430CEC
:107B580091EA030F02BF90EA020F0020704710F16C
:107B6800000F91EA030F58BF994208BF90422CBFFB
:107B7800D8176FEAE37040F0010070474FEA410CF4
:107B88007FEA6C5C02D150EA013C07D14FEA430C12
:107B98007FEA6C5CD6D152EA033CD3D05DF8040B83
:107BA800704700BF8446104662468C4619466346B5
:107BB80000E000BF01B5FFF7B7FF002848BF10F18C
:107BC800000F01BD4DF808EDFFF7F4FF0CBF0120D1
:107BD80000205DF808FB00BF4DF808EDFFF7EAFF4D
:107BE80034BF012000205DF808FB00BF4DF808ED08
:107BF800FFF7E0FF94BF012000205DF808FB00BFFD
:107C08004DF808EDFFF7CEFF94BF012000205DF886
:107C180008FB00BF4DF808EDFFF7C4FF34BF012093
:107C280000205DF808FB00BF4FEA410C7FEA6C5C5E
:107C380002D150EA013C0AD14FEA430C7FEA6C5C5E
:107C480002D152EA033C02D14FF0000070474FF0D6
:107C5800010070474FEA410212F5001215D211D502
:107C68006FF47873B3EB625212D94FEAC12343F031
:107C7800004343EA505311F0004F23FA02F018BFB3
:107C8800404270474FF00000704750EA013005D17C
:107C980011F0004008BF6FF0004070474FF000003F
:107CA800704700BF4A0011D212F5001211D20DD54B
:107CB8006FF47873B3EB62520ED44FEAC12343F0EA
:107CC800004343EA505323FA02F070474FF0000094
:107CD800704750EA013002D14FF0FF3070474FF043
:107CE800000070474FEA4102B2F1E04324BFB3F508
:107CF800001CDCF1FE5C0DD901F0004C4FEAC0021B
:107D08004CEA5070B2F1004F40EB830008BF20F0FE
:107D18000100704711F0804F21D113F13872BCBFB8
:107D280001F00040704741F480114FEA5252C2F10D
:107D38001802C2F1200C10FA0CF320FA02F018BF56
:107D480040F001004FEAC1234FEAD32303FA0CFCA9
:107D580040EA0C0023FA02F34FEA4303CCE77FEA38
:107D6800625307D150EA01331EBF4FF0FE4040F482
:107D78004000704701F0004040F0FE4040F4000031
:107D8800704700BF53B94AB9002908BF00281CBF73
:107D98004FF0FF314FF0FF3000F0A2B9ADF1080C01
:107DA8006DE904CE00F02AF8DDF804E0DDE90223ED
:107DB80004B07047D0B500220E4B06460F46FFF7B9
:107DC80099FCFFF76FFF0446FFF71EFC00220A4BE1
:107DD800FFF790FC02460B4630463946FFF7D6FAC5
:107DE800FFF760FF2346002242EA000210461946C8
:107DF800D0BD00BF0000F03D0000F0412DE9F04784
:107E08008C460E460446089D002B50D18A421746E0
:107E18006CD9B2FA82FEBEF1000F0BD0CEF120046D
:107E280020FA04F401FA0EF644EA060C02FA0EF7F8
:107E380000FA0EF44FEA1749220CBCFBF9F01FFABE
:107E480087F809FB10C642EA064600FB08F3B3426E
:107E580009D9F61900F1FF3280F02281B34240F2CD
:107E68001F8102383E44F61AA2B2B6FBF9F309FBA9
:107E7800136642EA064403FB08F8A04509D9E41949
:107E880003F1FF3280F00A81A04540F20781023BEE
:107E98003C44C8EB040443EA00400021002D62D0B2
:107EA80024FA0EF400232C606B60BDE8F0878B4247
:107EB80007D9002D55D0002185E841000846BDE8C6
:107EC800F087B3FA83F1002940F09080B34202D3DF
:107ED800824200F2F880841A66EB03060120B44659
:107EE800002D40D085E81010BDE8F08712B90127B1
:107EF800B7FBF2F7B7FA87FEBEF1000F35D1F31BD7
:107F08004FEA17481FFA87FC0121B3FBF8F0220C4F
:107F180008FB103642EA06460CFB00F3B34207D9C9
:107F2800F61900F1FF3202D2B34200F2CE801046B9
:107F3800F61AA2B2B6FBF8F308FB136642EA064447
:107F48000CFB03FCA44507D9E41903F1FF3202D264
:107F5800A44500F2B5801346CCEB040443EA004084
:107F68009CE729462846BDE8F087CEF1200106FAAD
:107F78000EF307FA0EF720FA01F94FEA1748CE4038
:107F880049EA0309B6FBF8FA4FEA194408FB1A66EE
:107F98001FFA87FC44EA06430AFB0CF29A4200FAED
:107FA8000EF40AD9DB190AF1FF3180F087809A4272
:107FB80040F28480AAF1020A3B449B1A1FFA89F90D
:107FC800B3FBF8F108FB113349EA034301FB0CF654
:107FD8009E4207D9DB1901F1FF326BD29E4269D963
:107FE80002393B449B1B41EA0A418EE7C1F1200E4E
:107FF80022FA0EF48B40234320FA0EF706FA01F416
:108008004FEA134C26FA0EF63C43B6FBFCF9270C54
:108018000CFB19661FFA83F847EA064609FB08F7BE
:10802800B74202FA01F200FA01FA08D9F61809F182
:10803800FF3041D2B7423FD9A9F102091E44F61BCD
:10804800A0B2B6FBFCF40CFB146640EA064704FB3E
:1080580008F8B84507D9FF1804F1FF3028D2B84509
:1080680026D9023C1F4444EA0940C8EB0707A0FB95
:1080780002894F4544464E4614D329D065B3BAEB1E
:10808800040367EB060707FA0EFECB40CF404EEA23
:10809800030385E888000021BDE8F0871346F8E669
:1080A8001046E0E6B8EB020469EB03060138E5E7A1
:1080B8000446D8E7114695E78146C0E78A467CE73B
:1080C800023B3C4448E708460AE702383E442FE7AB
:1080D800C245E7D33E46D1E72946BDE8F08700BF51
:1080E800704700BF0A22002100F00CB910B5054CFA
:1080F80013462CB10A4601460220AFF3008010BD9A
:10810800204610BD0000000010B5431E0A449142ED
:1081180004D011F8014B03F8014FF8E710BD0244F1
:108128000346934202D003F8011BFAE770470000A8
:1081380038B5124B1C68A36B0546D3B91820FDF758
:108148009FF943F20E33A06303804AF6CD33438090
:1081580041F2342383804EF26D63C3804DF6EC63A5
:108168000381052343810B23838101220023C0E976
:108178000423A36B00221D615A6138BD64E2032009
:1081880010B50246134601321C78002CFAD1013B87
:1081980011F8012B03F8012F002AF9D110BD03466D
:1081A80011F8012B03F8012B002AF9D170470000C0
:1081B800024B0146186800F003B800BF64E20320D0
:1081C80070B5064608460C4600F00DF8451C2946D1
:1081D8003046FDF785F9064618B12A462146FFF7CD
:1081E80093FF304670BD034613F8012B002AFBD1DC
:1081F800181A0138704700002DE9F04780464048BA
:10820800D0F800900F463D4615F8014B09EB0400E5
:10821800407800F0080000F0FF0608B12F46F2E7AA
:108228002D2C03D1BD1C7C78012603E02B2C04BF28
:108238007C78BD1C13B1102B0AD15BE0302C57D1D0
:10824800287800F0DF0058284DD16C7810230235CB
:10825800002E14BF4FF0004C6FF0004C0027BCFB01
:10826800F3FA384603FB1ACC09EB040E9EF801E03A
:108278001EF0040F01D0303C0BE01EF0030E1BD0A3
:10828800BEF1010F0CBF4FF0370E4FF0570ECEEB7B
:108298000404A34210DDB7F1FF3F0AD0504506D8C9
:1082A80001D1644503DC03FB0040012701E04FF0E6
:1082B800FF3715F8014BD7E77B1C0CD1002E4FF088
:1082C800220314BF4FF000406FF00040C8F80030A0
:1082D8002AB9BDE8F08706B1404272B107B1691EFC
:1082E8001160BDE8F0873024002BB1D10823AFE737
:1082F8000A23ADE7302CA3D0AAE7BDE8F08700BF7A
:1083080000E2032013460A46014602480068FFF7C8
:1083180073BF00BF64E203201D400D0059400D00EB
:1083280085400D0089400D0000000000252E3566AF
:108338000025252530325800485454502F312E310D
:10834800006170692E7468696E67737065616B2E61
:10835800636F6D0026686561646572733D66616C64
:10836800736500504F5354202F75706461746520F5
:10837800485454502F312E310D0A00486F73743A07
:10838800206170692E7468696E67737065616B2E01
:10839800636F6D0D0A00436F6E6E656374696F6E6F
:1083A8003A20636C6F73650D0A00557365722D4131
:1083B80067656E743A200074736C69622D6172642B
:1083C80075696E6F2F312E3520287061727469635C
:1083D8006C65206172676F6E2900582D5448494EAC
:1083E80047535045414B4150494B45593A2000436A
:1083F8006F6E74656E742D4C656E6774683A2000F4
:108408000D0A0D0A00436F6E74656E742D547970F1
:10841800653A206170706C69636174696F6E2F785A
:108428002D7777772D666F726D2D75726C656E631B
:108438006F6465640D0A0026006669656C64006CEB
:1084480061743D006C6F6E673D00656C65766174A4
:10845800696F6E3D007374617475733D007477695C
:10846800747465723D0074776565743D0063726568
:10847800617465645F61743D005765617468657215
:108488002053746174696F6E00506F7765724F4E38
:1084980000436F756C646E742066696E6420736542
:1084A8006E736F7200256620496E636865732028B5
:1084B80048672900707265737375726500256620B8
:1084C8006D657465727300616C746D0054656D70D0
:1084D8002069732025662A430074656D7000323365
:1084E8003348555839393339394B374341480000F7
:1084F800000000000000000035550D003B550D0040
:1085080063550D0047550D0037550D00000000005C
:1085180000000000D75A0D00CD5A0D00C35A0D00B7
:10852800B95A0D00AD5A0D00A15A0D00955A0D000B
:108538008D5A0D00835A0D00795A0D006D5E0D009D
:108548000000000000000000F55A0D003F5B0D0020
:10855800175B0D00F75A0D001F5B0D00275B0D0020
:108568002F5B0D00375B0D000000000000000000CD
:10857800C15B0D00B35B0D00B55B0D006C6E006652
:108588006E00636F64650064657461696C00253012
:1085980031307520005D20002C200028293A200069
:1085A800205B00636F6465203D20002569006465D9
:1085B8007461696C73203D200062617564005365C5
:1085C8007269616C0053657269616C31007479700D
:1085D8006500706172616D00636D640069640068B4
:1085E8006E64007374726D0066696C74006C766CEE
:1085F8000061646448616E646C65720072656D6FD9
:10860800766548616E646C657200656E756D48616B
:108618006E646C657273004A534F4E537472656191
:108628006D4C6F6748616E646C65720061707000B4
:108638006E6F6E6500747261636500696E666F00C7
:108648007761726E006572726F720070616E696335
:1086580000616C6C000000000000000000000000D9
:108668002F5D0D00255D0D001B5D0D00115D0D00DA
:10867800055D0D00F95C0D00ED5C0D00E55C0D007D
:10868800DB5C0D00D15C0D006D5E0D00000000008C
:1086980000000000055E0D000F5E0D00195E0D0064
:1086A800235E0D002D5E0D00395E0D00455E0D0048
:1086B800515E0D00595E0D00635E0D006D5E0D008C
:1086C8006E616E006F7666002E00696E66000000AF
:1086D8000000000000000000D9610D00DB610D0002
:1086E800000000000000000039670D003F670D0022
:1086F800276C0D004B670D003B670D000000000064
:1087080000000000E1490D00F9490D00B1660D00B7
:10871800CB660D00CD6A0D000F690D00E1680D00F4
:10872800F5660D00A5690D0051670D0043690D0040
:108738009F6A0D00F7660D002F670D00DD660D00BE
:1087480041680D00C1680D00776972696E67007233
:10875800656376206572726F72203D202564005A29
:1087680000252B3033643A253032750025592D25E4
:108778006D2D25645425483A254D3A2553257A0010
:1087880061736374696D65000000000000000000FB
:10879800556C0D00796C0D00856C0D00055F0D00A2
:1087A800616C0D006D6C0D00676C0D00736C0D0035
:1087B800576C0D005B6C0D0000000000000000000D
:1087C8002D6D0D00716D0D004B6D0D00055F0D00D9
:1087D800456D0D002F6D0D00376D0D006B6D0D0093
:1087E8003F6D0D00296D0D00000000000000000025
:1087F8005F6E0D00556E0D004B6E0D00016E0D0085
:108808003F6E0D00336E0D00276E0D001F6E0D00BC
:10881800156E0D000B6E0D006D5E0D000020202002
:108828002020202020202828282828202020202018
:1088380020202020202020202020202020881010E8
:108848001010101010101010101010101004040444
:108858000404040404040410101010101010414102
:1088680041414141010101010101010101010101F0
:108878000101010101010101101010101010424204
:1088880042424242020202020202020202020202C0
:108898000202020202020202101010102000000060
:1088A80000000000000000000000000000000000C0
:1088B80000000000000000000000000000000000B0
:1088C80000000000000000000000000000000000A0
:1088D8000000000000000000000000000000000090
:1088E8000000000000000000000000000000000080
:1088F8000000000000000000000000000000000070
:10890800000000000000000000000000000000005F
:10891800000000000000000000000000000000004F
:10892800000000000000000000000000000000003F
:10893800000000000000000000000000000000002F
:10894800000000000000000000000000000000001F
:10895800000000000000000000000000000000000F
:1089680000000000000000000000000000000000FF
:1089780000000000000000000000000000000000EF
:10898800854C0D00074F0D000B4F0D00114F0D00CA
:1089980009500D00E15A0D00C15C0D00B95D0D00D4
:1089A800F15E0D00BD610D0099660D00416C0D0072
:1089B800696E0D00A9700D00FD700D00C1710D00EC
:0889C80045720D00C9720D009B
:0889D00034F4FF7F01000000F8
:1089D800DE2A0B0010270000E6840D0088870D00B2
:1089E80024880D000000000028890D0048890D002A
:1089F80068890D0000000000000000000000000071
:108A080000000000DF840D000000000000000000EE
:108A1800000000000000000000000000000000004E
:108A2800000000000000000000000000000000003E
:108A3800000000000000000000000000000000002E
:088A48000000000004E203201D
:108A5000FFFFFFFF00000102030405060708090AE3
:108A60000B0C0D0E0F101112131415161718191ADE
:088A70001B1C1D1E1F20280025
:048A780078563412E6
:04000003D0004018D1
:00000001FF
